:020000040800F2
:104000008038002061420008A5610008F5570008CB
:10401000415F0008CF440008556B00080000000015
:1040200000000000000000000000000049640008DB
:10403000B745000800000000B96100086D64000881
:104040007B4200087B4200087B4200087B4200085C
:104050007B4200087B4200087B4200087B4200084C
:104060007B4200087B4200087B4200087B4200083C
:10407000F54400081D450008294500087B4200085A
:1040800055450008814500087B4200087B42000836
:104090007B4200087B4200087B4200087B4200080C
:1040A0007B4200087B4200087B4200087B420008FC
:1040B000ED6400087B4200087B4200087B42000858
:1040C0007B4200087B4200087B4200087B420008DC
:1040D0007B420008256B0008316B00087B4200081A
:1040E0007B4200087B4200087B42000800F002F897
:1040F00000F05AF80AA090E8000C82448344AAF128
:104100000107DA4501D100F04FF8AFF2090EBAE825
:104110000F0013F0010F18BFFB1A43F001031847FB
:10412000B4410000D44100000A444FF0000C10F8E4
:10413000013B13F0070408BF10F8014B1D1108BF25
:1041400010F8015B641E05D010F8016B641E01F8C5
:10415000016BF9D113F0080F1EBF10F8014BAD1C15
:104160000C1B09D16D1E58BF01F801CBFAD505E033
:1041700014F8016B01F8016B6D1EF9D59142D6D38D
:10418000704700000023002400250026103A28BFB5
:1041900078C1FBD8520728BF30C148BF0B607047B9
:1041A0001FB51FBD10B510BD00F058F91146FFF73F
:1041B000F7FF02F0E1FC00F076F903B4FFF7F2FF3D
:1041C00003BC00F07DF90000224B19680868B0E8D4
:1041D000F00F80F30988BFF36F8F4FF0000080F37A
:1041E00011884EF00D0E7047000000000648006870
:1041F000006880F3088862B661B6BFF34F8FBFF3E3
:104200006F8F00DF00BF00BF08ED00E0EFF3098013
:10421000BFF36F8F0F4B1A6820E9F00F106008B5DD
:104220004FF0500080F31188BFF34F8FBFF36F8FB3
:1042300003F06CFA4FF0000080F31188BDE80840ED
:1042400019680868B0E8F00F80F30988BFF36F8F32
:10425000704700BF58060020EFF30580704700004C
:104260000948804709480047FEE7FEE7FEE7FEE70A
:10427000FEE7FEE7FEE7FEE7FEE7FEE70448054946
:10428000054A064B70470000E9640008ED4000084D
:1042900080320020803800208034002080340020CC
:1042A000B2F120030AD5C2F1200320FA02F001FA8C
:1042B00003F321FA02F140EA0300704721FA03F008
:1042C0004FF000017047032A40F2308010F0030CD9
:1042D00000F0158011F8013BBCF1020F624498BF59
:1042E00011F801CB00F8013B38BF11F8013BA2F1F6
:1042F000040298BF00F801CB38BF00F8013B11F071
:10430000030300F07980083AC0F0088051F8043BBC
:10431000083A51F804CBA0E80810F5E7121D5CBF7D
:1043200051F8043B40F8043BAFF30080D20724BFB0
:1043300011F8013B11F801CB48BF11F8012B24BF44
:1043400000F8013B00F801CB48BF00F8012B704793
:1043500002F0FF0343EA032242EA024200F002B8FD
:104360004FF000020429C0F0128010F0030C00F09E
:104370001B80CCF1040CBCF1020F18BF00F8012B1C
:10438000A8BF20F8022BA1EB0C0100F00DB85FEAEA
:10439000C17C24BF00F8012B00F8012B48BF00F8B6
:1043A000012B70474FF0000200B513469446964625
:1043B000203922BFA0E80C50A0E80C50B1F1200138
:1043C000BFF4F7AF090728BFA0E80C5048BF0CC0E6
:1043D0005DF804EB890028BF40F8042B08BF704744
:1043E00048BF20F8022B11F0804F18BF00F8012BB6
:1043F000704770477047704710B5203AC0F00B8087
:10440000B1E81850203AA0E81850B1E81850A0E8D8
:104410001850BFF4F5AF5FEA027C24BFB1E8185032
:10442000A0E8185044BF18C918C0BDE810405FEAA2
:10443000827C24BF51F8043B40F8043B08BF70471E
:10444000D20728BF31F8023B48BF11F8012B28BF23
:1044500020F8023B48BF00F8012B7047754600F07A
:104460002BF8AE4605006946534620F00700854606
:1044700018B020B5FFF702FFBDE820404FF000065E
:104480004FF000074FF000084FF0000B21F007013C
:10449000AC46ACE8C009ACE8C009ACE8C009ACE87F
:1044A000C0098D46704710B50446AFF30080204622
:1044B000BDE81040FFF781BE004870471C32002065
:1044C00001491820ABBEFEE7260002007047FEE758
:1044D000054C4FF47A752A460449054802F024FA3F
:1044E000E069401CE061F6E738060020A1600008A2
:1044F00014010020074908688206074807D590F88C
:1045000044200F2090404860034801F09DBE001DEC
:1045100000F07CB90000024078050020014800F05E
:1045200075B90000C005002007480168890408D556
:10453000064991F840200F2191404160044802F063
:10454000C5B9024800F062B9000002405C070020D3
:104550000000002007480168890208D5064991F843
:1045600040200F2191404160044802F003B9024805
:1045700000F04CB900000240A00700201401002008
:1045800007480168890108D5064991F840200F21A4
:1045900091404160044802F081B8024800F036B909
:1045A00000000240E40700201401002000680168B8
:1045B000C907FCD17047704772B6FEE70649002074
:1045C000C8610648016941F004010161016941F0D7
:1045D00040010161704700002808002000200240CF
:1045E000064A0021D16106490A6942F002020A61C5
:1045F0004861086940F040000861704728080020C1
:1046000000200240044B0022DA61044A136943F09F
:104610000103136101807047280800200020024038
:1046200014480022C168CB06134904D5CA6942F078
:104630000202CA611022C3685B0705D5CB6943F04B
:104640000103CB6142F00402C369DB0707D0CB69E9
:1046500043F00403CB61C16921F00101C161A2F5FE
:104660008071013901D0C2607047C16921F0010138
:10467000C1617047002002402808002070B505463F
:1046800000F044FB0646114C09E0681C07D025B138
:1046900000F03CFB801BA84201D9032070BDE068FC
:1046A000C007F2D1E068800601D52020E060E06814
:1046B000C00605D4E069C00702D1E068400703D511
:1046C000FFF7AEFF012070BD002070BD002002404A
:1046D000F0B585B015460F46064600F00DFA05F216
:1046E000FF31C1F387210020CDE9026104900090E1
:1046F00004A9684600F062F920B100F0B3F9042083
:1047000005B0F0BD00240CE03819311902880023EF
:10471000012000F0B1F918B100F0A4F90520EFE78D
:10472000A41CAC42F0D300F09DF90020E8E710B5DE
:1047300090F821100022022905D00421816380F81D
:104740002020012010BD01680B6823F00E030B60D0
:1047500001680B6823F001030B6090F84030C46BD4
:10476000012101FA03F3636080F8211080F8202012
:10477000104610BD10B590F821100024022903D076
:104780000421816301243DE001680A6822F00E02E1
:104790000A6001680A6822F001020A601A4A016888
:1047A000914201D1012121E0174A1432914201D1F5
:1047B00010211BE0144A2832914201D1891515E0DD
:1047C000114A3C32914201D189140FE00E4A503215
:1047D000914202D14FF4803108E00B4A6432914299
:1047E00002D14FF4801101E04FF08071064A083A7F
:1047F0005160012180F82110002180F82010416BC8
:1048000001B18847204610BD080002402DE9F05F45
:10481000C16B0C6801680B68D0F840C0042202FA32
:104820000CF2494DDFF824A1494E4A4FDFF828B178
:10483000DFF828E122422CD05A072AD50A689206CE
:1048400003D40A6822F004020A600168A94201D177
:10485000042219E0514501D1402215E0B14202D1B4
:104860004FF4806210E0B94202D14FF480420BE075
:10487000594502D14FF4802206E0714502D14FF430
:10488000800201E04FF080622F4908394A60C16A16
:104890003BE04FF0020808FA0CF818EA040F4FF05A
:1048A00000094FF0010235D05FEA837832D50B68FA
:1048B0009B0605D40B6823F00A030B6080F82120C7
:1048C0000168A94201D1022219E0514501D12022FB
:1048D00015E0B14202D14FF4007210E0B94202D1AA
:1048E0004FF400520BE0594502D14FF4003206E07C
:1048F000714502D14FF4001201E04FF000721249ED
:1049000008394A6080F82090816A00291AD0BDE8F1
:10491000F05F0847082505FA0CF5254212D01B0761
:1049200010D50B6823F00E030B6090F84010C36B9A
:1049300002FA01F15960826380F8212080F820900A
:10494000016BE2E7BDE8F09F080002401C00024056
:104950003000024044000240580002406C00024017
:1049600030B528B308C8134914221944B1FBF2F139
:104970008900C16310498163022141771A6843F6B7
:10498000F0718A43D0E900142143D0E902452C4359
:10499000214304692143446921438469214311432C
:1049A000196000214163012242770177084630BD3A
:1049B000012030BDF8FFFDBF000002402DE9F047A7
:1049C000054626480F460126017E01290FD0012108
:1049D000814601762868DFF888804CF2503402283E
:1049E00008D0A2462046FFF749FEA8B131E00220D8
:1049F000BDE8F0872046FFF741FE08BB0120FFF726
:104A0000DDFD2046FFF73AFED8F81010064621F0EB
:104A10000401C8F810101CE04FF0FF303860AC689B
:104A200011E02046FFF7DCFD5046FFF727FED8F8DF
:104A30001010060021F00201C8F8101001D03C60EF
:104A400007E004F58064D5E9020100EB8120A04273
:104A5000E7D8002189F818103046C9E72808002057
:104A6000002002400348016941F0800101610020FB
:104A700070470000002002402DE9F05F07461C4807
:104A800088460024017E15461E46012909D00121D1
:104A9000814601764CF2503A5046FFF7EFFD18B1CF
:104AA00022E00220BDE8F09F012F02D0022F00D0AB
:104AB0000427D346DFF83CA0220128463146FFF701
:104AC000EFFB81B208EB4400FFF79CFD5846FFF76F
:104AD000D5FDDAF8102022F00102CAF8102018B92A
:104AE000641CE4B2BC42E7D3002289F81820D9E75D
:104AF0002808002000200240064900200A6912060A
:104B000007D5054A4A60054A4A600969090600D581
:104B1000012070470020024023016745AB89EFCD9B
:104B20002DE9F84FDFF8B8910024A9F1040B2346D2
:104B30000F2709F1040AABF1040EC9E00125A540D5
:104B40002A40AA427DD1674ED1F804C0ACEB0608DA
:104B5000B44532D014DCBCF1030F3AD009DCBCF10F
:104B6000000F2AD0BCF1010F1CD0BCF1020F31D1D3
:104B70001DE0BCF1110F17D0BCF1120F2AD119E0C2
:104B8000B8F5881F19D006DCB8F5803F15D0B8F508
:104B9000801F1FD111E0B8F5001F0ED0B8F5041F1B
:104BA00018D10AE0CB6815E0CB681B1D12E0CB687A
:104BB00008330FE0CB680C330CE08B682BB1012B72
:104BC0004FF0080303D0456104E0042302E00561CF
:104BD00000E00023FF2A01D8064601E000F10406A8
:104BE0004FEA840501D9A5F12005D6F8008007FA1F
:104BF00005FC28EA0C0803FA05F548EA0508C6F89A
:104C000000804D68ED0062D5374DAE6946F0010673
:104C1000AE61AD6924F0030605F001050095334D42
:104C200006EB050CDCF80850A607360F07FA06F865
:104C300025EA0805DFF8B880404503D14FF00008A9
:104C400017E044E0DFF8AC80404502D14FF00108A6
:104C50000FE0DFF8A480404502D14FF0020808E0E1
:104C6000DFF89880404502D14FF0030801E04FF093
:104C7000040808FA06F848EA0508CCF808804D68E8
:104C8000D9F80060ED024D4601D5164300E0964389
:104C90002E604D68DAF80060AD02554601D5164326
:104CA00000E096432E604D68DBF80060AD035D4682
:104CB00001D5164300E096432E604D68DEF8006093
:104CC000ED03754601D5164300E096432E60641C43
:104CD0000D682A46E5407FF431AFBDE8F88F00004B
:104CE00008040140000011100010024000000140C3
:104CF00000080140000C0140001001400014014078
:104D00000AB1016170470904FBE7000001488068AF
:104D1000704700002806002070B5040013D02168F9
:104D20004CF6CC400860216845F255500860D4E943
:104D3000000141602168A0688860FFF7E7FF054631
:104D400041F23C360DE0012070BD00BFFFF7DEFFF1
:104D5000401BB04205D92068C068800701D00320FD
:104D600070BD2068C0688007F0D121684AF6AA208B
:104D70000860002070BD00684AF6AA21016000208A
:104D800070470000024881680278114481607047D2
:104D900028060020074810B5016841F010010160A5
:104DA000032000F075F80F2000F006F800F024F85A
:104DB000002010BD0020024070B50D4D04464FF498
:104DC0007A712878B1FBF0F00A490968B1FBF0F07C
:104DD00000F0DCFA48B9102C07D200222146501E00
:104DE00000F036F800206C6070BD012070BD00003E
:104DF00028060020340600200C4808B5816941F0DF
:104E000001018161816901F001010091C16941F0F5
:104E10008051C161C06900F0805000900448416831
:104E200021F0E06141F00071416008BD00100240D6
:104E300000000140002809DB00F01F020121914021
:104E40004009800000F1E020C0F800117047000028
:104E5000F0B40E4B1B680C46C3F30223C3F10705E5
:104E6000042D00D90425191D072901D2002300E0D3
:104E7000DB1E012606FA05F1491E214099409E409D
:104E8000761E16403143F0BC01F065BE0CED00E02B
:104E9000064900F0070208684FF6FF03184040EA91
:104EA0000220034A10430860704700000CED00E048
:104EB0000000FA052DE9F0470F46050061D0434E8A
:104EC000306800F00700B84209D2306820F00700CF
:104ED00038433060306800F00700B84251D128688C
:104EE0003B4C810712D5400703D5606840F4E06071
:104EF00060602878000703D5606840F46050606007
:104F00006068A96820F0F000084360602878C00756
:104F100028D06868012810D02168022810D089079D
:104F200000292EDA616821F0030101436160FFF777
:104F3000EDFE804641F288390DE021688903EFE7F4
:104F40008901EDE7FFF7E2FEA0EB0801494502D930
:104F50000320BDE8F0876068696800F00C00B0EBE2
:104F6000810FEFD1306800F00700B8420BD93068EC
:104F700020F0070038433060306800F00700B84286
:104F800001D00120E5E72878400705D56068E96889
:104F900020F4E060084360602878000706D5606868
:104FA000296920F4605040EAC100606000F038F8E0
:104FB0006168084AC1F30311515CC84006490860A2
:104FC00006480068FFF7F8FE0020C2E70020024014
:104FD00000100240BA820008340600202C0600208F
:104FE0000448054900684968044AC1F30221515C3C
:104FF000C84070473406002000100240CA820008F2
:105000000448054900684968044AC1F3C221515C5B
:10501000C84070473406002000100240CA820008D1
:105020000E4A51680E4801F00C03042B11D0082BD6
:105030000FD10C48C1F38343C903C05C0AD5516842
:10504000084AC1F34041921E515C054A5043B0FBEF
:10505000F1F07047044948437047000000100240D7
:1050600000127A00AA82000800093D002DE9F84FDD
:10507000040070D02078C04DC00749D06868C0F3E4
:105080008100012807D06868C0F38100022809D197
:105090006868C00306D52868800339D56068002891
:1050A000E7D035E06068B0F5803F0BD010B1B0F5C7
:1050B000A02F11D0286820F480302860286820F4C0
:1050C000802002E0286840F480302860606890B159
:1050D000FFF71CFE06460AE0286840F4802028609E
:1050E000F0E700BFFFF712FE801B642873D8286822
:1050F0008003F7D50CE0FFF709FE064605E000BF88
:10510000FFF704FE801B6428F0D828688003F7D4DA
:1051100020789A4E80074FF001094FF0000839D5EA
:10512000686810F00C0F07D06868C0F3810002288F
:1051300009D16868C00306D42868800714D520699F
:10514000012808D110E02069B0B1C6F80090FFF73F
:10515000DDFD074605E00AE1FFF7D8FDC01B022888
:10516000C4D828688007F7D52868616920F0F8005E
:1051700040EAC10028600DE0C6F80080FFF7C6FDD8
:10518000074604E0FFF7C2FDC01B022823D82868A9
:105190008007F7D4207800072CD57948A169D9B1C8
:1051A000C0F80090FFF7B2FD074604E0FFF7AEFD40
:1051B000C01B02280FD8686A8007F7D571484FF4E2
:1051C000FA510068B0FBF1F0009000BF0098411E5A
:1051D0000091FAD20EE080E0C0F80080FFF796FD63
:1051E000074604E0FFF792FDC01B022875D8686AE5
:1051F0008007F7D42078400760D5E8690027C00011
:1052000008D4E86940F08050E861E869012700F0BF
:10521000805000905C480168C90513D4016883463A
:1052200041F480710160FFF771FD824606E000BF26
:10523000FFF76CFDA0EB0A0064284ED8DBF80000F5
:10524000C005F5D5E06801280AD008B1052813D0BB
:10525000286A20F001002862286A20F0040002E099
:10526000286A40F001002862E06841F2883B98B16A
:10527000FFF74CFD82460BE0286A40F004002862EC
:10528000EEE700BFFFF742FDA0EB0A0159455AD8EF
:10529000286A8007F6D50CE0FFF738FD824605E066
:1052A000FFF734FDA0EB0A0159454CD8286A800766
:1052B000F6D41FB1E86920F08050E861E06988B356
:1052C0006968C1F38101022944D00228C6F86080D0
:1052D00004D0FFF71BFD044638E034E0FFF716FD6D
:1052E000074604E0FFF712FDC01B02282BD82868F0
:1052F0008001F7D4206AB0F5803F05D16868A168C5
:1053000020F4003008436860D4E908010843696864
:1053100021F4741108436860C6F86090FFF7F6FC4A
:10532000044606E025E000BFFFF7F0FC001B022862
:1053300009D828688001F7D51BE000BFFFF7E6FC1D
:10534000001B022802D90320BDE8F88F28688001DD
:10535000F4D40EE00128F7D06868226A00F48031A6
:10536000914204D1616A00F47010884201D001209A
:10537000EAE70020E8E70000001002400000424297
:1053800080044242340600200070004010B5401EE8
:10539000B0F1807F01D3012010BD4FF0E0246061A7
:1053A0000F21601701F0D7FB0020A06107202061CA
:1053B000002010BD70477047F8B5016804460868C2
:1053C000CA684B6910F00F0F4FF0000559D003F079
:1053D000010602F49077374365D0C10705D0D105A7
:1053E00003D5616C41F001016164410705D5D9071E
:1053F00003D0616C41F002016164810705D5D907D2
:1054000003D0616C41F004016164010707D502F02B
:105410002001314303D0616C41F008016164616C8B
:1054200000293AD0800604D5900602D5204601F026
:10543000BCFA20684069616CC0F38010090700D491
:1054400060B3204601F06FF920684069400621D51D
:105450002068143050E8001F21F0400140E800129D
:10546000002AF5D1E06BA8B16D494163E06BFFF70D
:1054700081F9002811D0E06B416B01B0BDE8F0402C
:10548000084783060FD593060DD52046BDE8F840A2
:1054900001F08BBA2046FFF78EFFF8BD2046FFF7DC
:1054A0008AFF6564F8BD266B2023012E7CD1C606D9
:1054B0007AD5D60678D508684868009048694FF0D4
:1054C0000206400640D5E16B086840680004000C05
:1054D000E8D0A28D8242E5D9E085886920282DD0C8
:1054E00020680C3050E8001F21F4807140E8001261
:1054F000002AF5D12068143050E8001F21F0010186
:1055000040E80012002AF5D12068143050E8001F4E
:1055100021F0400140E80012002AF5D184F8423021
:10552000256320680C3050E8001F21F0100140E88E
:105530000012002AF5D1E06BFFF7F9F86663A08D41
:10554000E18D401A81B22AE0A08DE18D401A81B22E
:10555000E08D0028A6D00029A4D022680C3252E8A1
:10556000000F20F4907042E80007002FF5D120686A
:10557000143050E8002F22F0010240E80027002FED
:10558000F5D184F84230256320680C3050E8002FB4
:1055900022F0100240E80023002BF5D1666320467C
:1055A000FFF708FFF8BDFFE705062BD5150629D53F
:1055B00094F841002128F5D1A068B0F5805F01D1B1
:1055C0002069B0B1206A411C2162216800784860DE
:1055D000E08C401E0004000CE084E3D12068C16828
:1055E00021F08001C1602068C16841F04001C160C4
:1055F000D8E7206A0088C0F308004860206A801C51
:105600002062E5E74006CDD55006CBD5CA682046D6
:1056100022F04002CA6084F8413000F0EAF8C1E7A5
:10562000E565000870B5040004D094F84100002539
:1056300010B106E0012070BD84F84050204600F013
:1056400023F8242084F841002068C16821F4005127
:10565000C160204601F00AFA2068016921F49041F6
:1056600001612068416921F02A0141612068C16817
:1056700041F40051C1606564202084F8410084F841
:1056800042006563002070BD2DE9F04186B0002422
:1056900000940194029403940646DFF83CC1036829
:1056A0004E48022103224E4D80274FF010086345DB
:1056B00038D1836943F480438361836903F4804371
:1056C0000493836943F0040383618069039200F0CB
:1056D000040004900802CDE9000169462846FFF75E
:1056E0001FFA2815CDE90004694628460294FFF701
:1056F00017FA3D4D3B48C5E902472C616C61AC612E
:10570000EC61C5E900082846FFF72AF908B1FEF761
:1057100053FFB56300220B2125206E62FFF798FB33
:10572000252054E0DFF8C4C0634552D1C36943F477
:105730000033C361C36903F400330493836943F006
:10574000040383618069039200F004000490042044
:10575000CDE9000169462846FFF7E2F90820CDE9C6
:105760000004694628460294FFF7DAF91E4D1D48E9
:1057700044352830C5E90004C5E902472C614FF4DF
:1057800000506C61C5E906402846FFF7E9F808B10A
:10579000FEF712FFF5636E62134D124888353C30F8
:1057A000C5E902472C616C61C5E900088014C5E9B0
:1057B00006402846FFF7D4F808B1FEF7FDFEB563B2
:1057C0000022072126206E62FFF742FB2620FFF70A
:1057D00031FB06B0BDE8F081003801400010024006
:1057E00000080140440002405C07002000440040E3
:1057F00070477047FEE70000044908B58A69024314
:105800008A6189690140009108BD000000100240D2
:10581000044908B58A6902438A6189690140009197
:1058200008BD000000100240F0B50A68C2F30F2561
:1058300095FAA5F2B2FA82F369E001229A402A426F
:1058400064D0082B03D240F201129A4006E0A3F183
:1058500008024FF00114944044F080624C68082C18
:105860000BD10C69C668170A97FAA7F7B7FA87F73A
:1058700026EA1226BC402643C66092FAA2F700EB45
:105880001264B7FA87F74FEA870C0F27266807FAE2
:105890000CF7BE4392FAA2F7D1F804E0B7FA87F703
:1058A000BF000EFA07FE46EA0E0626604F68012F7B
:1058B00001D0092F2AD192FAA2F7B7FA87F74FEA57
:1058C000870C032707FA0CF7BE4392FAA2F7B7FA40
:1058D00087F7D1F808E0BF000EFA07FE92FAA2FCA3
:1058E00046EA0E06BCFA8CFC4FEA8C0E4FF0040C14
:1058F00026600CFA0EFC92FAA2F2B2FA82F2CF689B
:10590000920026EA0C0697403E4326605B1C35FA5F
:1059100003F292D10020F0BD10B503680122C3F359
:1059200080132BBBD1E900231A43D1E9023423436E
:105930001A430B691A434B691A438B691A43CB69A3
:105940001A430B6A1A4303684FF6BF74A3431A4302
:10595000026042684B6922F0040242EA134242604C
:105960000A6AB2F5005F02D1898C89B20161002216
:10597000104610BDF0B50268154B164C164D4FF091
:105980008046984205D0B04203D0A04201D0A84240
:1059900003D14F6822F070023A43984205D0B042DA
:1059A00003D0A04201D0A84203D1CC6822F44072B7
:1059B000224302608A68C2620A888262984201D1E8
:1059C00009690163416941F0010141610020F0BDB5
:1059D000002C01400004004000080040012919D0BB
:1059E000042919D0102919D0402919D0B1F5807F88
:1059F00018D0B1F5806F17D006210C4A1830525CD0
:105A000010440268094BDB1D5B5C042199408A430A
:105A1000026070470021F0E70121EEE70221ECE788
:105A20000321EAE70421E8E70521E6E79A82000876
:105A3000F0B501250023604C012908D0102933D08E
:105A4000B1F5807F64D0B1F5805F5FD190E0016AED
:105A500021F001010162016A45688669176826F034
:105A600073063E43176921F002013943576821F05C
:105A700001013943A04212D1546921F0080141EAE1
:105A80008401946821F0040141EA840125F48074C2
:105A900095692C43D56924F4007444EA45054560B2
:105AA0008661D26842632FE0016A21F01001016231
:105AB000016A45688669176826F4E64646EA0726BD
:105AC000176921F0200141EA0711576821F0100100
:105AD00041EA0711A04213D1546921F0800141EA43
:105AE0008411946821F0400141EA841125F4806416
:105AF000956944EA8504D56924F4006444EAC5053F
:105B000045608661D268826301621D462846F0BD09
:105B1000016A21F480710162016A4568C6691768EB
:105B200026F073063E43176921F4007141EA07210C
:105B3000576821F4807141EA0721A04213D15469CA
:105B400021F4006141EA8421946821F4806141EAF2
:105B5000842125F48054956944EA0514D56924F418
:105B6000005444EA45154560C661D268C263CBE77C
:105B7000016A21F480510162056A4168C6691768AB
:105B800026F4E64646EA0726176925F4005545EA55
:105B90000735576825F4805545EA0735A04204D1FA
:105BA000946921F4804141EA84114160C661D16861
:105BB00001640562A9E70000002C0140114808B506
:105BC000416941F0010141614069002200F001009A
:105BD00000900C210E20FFF73BF90E20FFF72AF969
:105BE000002208211020FFF733F91020FFF722F9D7
:105BF000002208211120FFF72BF9BDE808401120F1
:105C0000FFF718B9001002402DE9F04186B00024DA
:105C100024480094019402940394816941F0100196
:105C20008161816901F010010491816941F02001D5
:105C30008161816901F020010491816941F00401D1
:105C40008161816901F004010491816941F00801D9
:105C500081618069144F00F008004FF400550490F2
:105C6000002229463846FFF74BF8DFF84080002233
:105C700002214046FFF744F80126CDE900560225EF
:105C800069463846CDE90245FEF74AFFCDE90056A0
:105C900069464046CDE90245FEF742FF06B0BDE841
:105CA000F081000000100240001001400008014097
:105CB000094810B5074901600621416040F21A61A8
:105CC0008160FFF729F8002803D0BDE81040FEF7F7
:105CD00073BC10BD00300040C006002030B58FB04E
:105CE00028216846FEF75EFB14210AA8FEF75AFB3E
:105CF0004FF48050FFF780FD0420FFF77DFD42F256
:105D000020000A9009200B9003200024CDE90C0408
:105D1000124D0AA92846FFF787FD44F240000A9079
:105D200004200B900AA92846FFF77EFD2815009055
:105D30004FF482700190E814CDE902048010CDE99F
:105D400004400820CDE906040A20CDE90840694650
:105D50000348FFF7E1FD0FB030BD0000000801402F
:105D60000030014070B594B014210DA8FEF71AFB65
:105D700020216846FEF716FB142108A8FEF712FB47
:105D80004A48C16941F00101C161C06900F00100E8
:105D9000129047480068C0F30220C0F10702042AAD
:105DA00000D90422011D072901D2002000E0C01EF5
:105DB00001219140491E01F00501814000250801A3
:105DC0003C4981F800044FF0E0214FF08050C1F8C9
:105DD00000014720ADF834006320CDE90E504FF0AC
:105DE00080440DA920461095FFF7C4FD206840F0BF
:105DF00080002060A06844F207018843A0602E481C
:105E0000007800F18040183001682B4AD21D1378C9
:105E100008229A40114301606020CDE9000532203C
:105E2000CDE902506A46012120460495FFF700FEA5
:105E300001212046FFF7D2FD0620A61503906A46F1
:105E4000314600952046FFF7F3FD31462046FFF727
:105E5000C5FD606820F070006060A06820F08000E0
:105E6000A0600420FFF7D4FC0820FFF7D1FC701CD1
:105E70000924CDE908040320CDE90A0508A90F4843
:105E8000FFF7D2FC0E48CDE908040220CDE90A054F
:105E900008A90C48FFF7C8FC0B4841680B4A21F4DD
:105EA00080711143416014B070BD000000100240C9
:105EB0000CED00E01CE000E09A82000800080140C0
:105EC00004000404000C014000000140000200072F
:105ED0000C4810B50A4901604FF4E13141600021DE
:105EE00081600C22C160C0E904128161C161FFF7C9
:105EF00099FB002803D0BDE81040FEF75DBB10BD44
:105F000000380140CC0600200C4810B50A49016059
:105F10004FF4E1314160002181600C22C160C0E991
:105F200004128161C161FFF77DFB002803D0BDE849
:105F30001040FEF741BB10BD004400401407002094
:105F4000FEE770B505464FF6FF7000224AF20104E5
:105F50000DE0AB5C58400023C6074FEA500000D06C
:105F600060405B1CDBB2082BF6D3521C92B28A4213
:105F7000EFD370BD0249014808607047FC31002032
:105F8000BC06002030B589B020216846FEF70AFA29
:105F90004FF0A5300090012000250190059568463E
:105FA00000F002F91B4C0221217080B1C121617007
:105FB000A07003212046FFF7C4FFE070000A2071A3
:105FC00005222146144800F08BF809B030BD41206D
:105FD0006070A57003210F48FFF7B3FFE070000A5F
:105FE000207105220B490C4800F07AF80A48C821B4
:105FF000D0F8600401F0BAFDBFF34F8F0748016885
:10600000074A01F4E06111430160BFF34F8F00BF05
:10601000FDE70000FC300020140100200CED00E042
:106020000400FA052DE9F041418880884BBA42BA54
:10603000002A2CD0D018082829D81648164C0668F3
:106040005006010E0220207004206070A170002014
:106050000BE01D1804EB400736F81550401C4FEAC2
:10606000152C87F803C03D7180B29042F1D3C91C52
:106070000D460948FFF765FF6055000A6119AA1C23
:106080004870BDE8F0410449044800F029B8BDE873
:10609000F0810000BC060020FC300020140100202C
:1060A00070B504460078022819D12046042916D379
:1060B0004218891E32F8025C89B2FFF742FF85421E
:1060C0000DD16078042805D0412808D1BDE8704082
:1060D000FFF758BF2046BDE87040FFF7A3BF70BD73
:1060E00070B50E4604461546D0F86004642101F0F0
:1060F0003DFD012801D0002070BD2A4631462046D2
:10610000BDE8704000F0E4BA7CB50D4D0D4928683B
:10611000884202D101F1100400E00A4C0822214615
:10612000094800F017F9002809D04FF4FA7301AAC2
:106130006946054800F072F9012800D12C607CBD49
:10614000BC060020FC31002078050020134C4FF4E1
:106150007A75284601F04EF9A069216988422078B5
:1061600002D140F0010001E020F001002070E06960
:1061700061698842207802D140F0020001E020F0FD
:1061800002002070A0692061E06960612078002829
:10619000DFD10348FEF7EFFDDBE700003806002003
:1061A000C0060020FEE70000014620220148FEF75D
:1061B0008FBA000000FC0008FEF728B81CB50420C8
:1061C00017498401CDE900010023224615A1174893
:1061D00001F0BEFD012801D0FEF7EEF910490320C1
:1061E000091DCDE900010023224611A1124801F04A
:1061F000AFFD012801D0FEF7DFF90949022008317F
:10620000CDE90001002322460CA10E4801F0A0FDBB
:10621000012803D0BDE81C40FEF7CEB91CBD00002C
:106220003C06002053656E736F7200004D640008D9
:10623000436F6D6D00000000D14400084D6F6E6922
:10624000746F72004D61000838B500230093016837
:106250004A6822F002024A6001684A6822F001029C
:106260004A6090F844200F2190F8884001FA02F229
:10627000A1400A430F494A6001680A6822F04002BF
:106280000A6001688A68C2F3C012002AFAD100F8D5
:106290008C3FC06810B1694601F00AFC00980028E4
:1062A00007D005494FF080500860BFF34F8FBFF310
:1062B0006F8F38BD0000024004ED00E02DE9F04191
:1062C0000446D0F89C000025C4E901058020C4E9FB
:1062D00003504600C7004FF44050C4E90750201D4A
:1062E000C4E90567FEF73CFBD4F8A000A0641020C9
:1062F000C4E9130504F1540080E8E0007001C4E92A
:10630000185004F14800FEF72BFB6068016841F06B
:106310000201016094F9A500002207218834FEF7EC
:1063200097FD94F91D00FEF785FD94F91C000022ED
:106330000721FEF78DFD2069883C30B9032200213A
:10634000012001F083FAC4F8980084F88C50BDE86D
:10635000F081000070B515460E46044600F09CFF23
:1063600094F88C0018B100F0B7FF002070BD012038
:1063700084F88C0000F0B0FFC4F89060A4F894504A
:106380006068016821F00101016060680168C90767
:10639000FCD194F844100F2000FA01F21D494A6024
:1063A000D4E900230C329A606268D6606268556056
:1063B000A26C136823F001031360A26C1368DB075F
:1063C000FCD194F88820904048602068A16C0C3083
:1063D0008860A16C1048C860A06C45602068416866
:1063E00041F0020141602068416841F001014160D3
:1063F0002068016841F040010160A06C016841F033
:10640000010101606068016841F001010160012043
:1064100070BD0000000002409882000870B504467C
:10642000D0F8980015460E46002805D0194601F010
:106430009DFB012801D0002070BD54F8900F306002
:10644000A0882880012070BDFDF7BEBE064C4FF02D
:10645000FF352A460121002000F096FEFFF754FE8A
:10646000A069401CA061F4E73806002010B5FEF7D3
:1064700089FC01F09BFC012803D0BDE8104001F02D
:10648000CFB910BD30B58FB028216846FDF78AFF1F
:1064900014210AA8FDF786FF0920012100904FF47E
:1064A0008030002404910691CDE901040225CDE954
:1064B00007504FF4E01009906846FEF7D7FD08B189
:1064C00072B6FEE70F20CDE90A054FF48060CDE9F2
:1064D0000C4002210AA80E94FEF7ECFC002801D023
:1064E00072B6FEE70FB030BD70470000014800688B
:1064F00000F012B83C060020016882880B6A134342
:106500000B620168CA6842F00102CA600068016853
:1065100041F001010160704708B54FF080410A6900
:1065200012F0010F14D06FF001020A6100280FD0A1
:1065300000216A46009100F083FF0098002807D0F0
:1065400004494FF080500860BFF34F8FBFF36F8F47
:1065500008BD000004ED00E010B50F4C0020A4F8C9
:106560000801A4F80A0160680068016841F00201AE
:10657000016020680068416941F080014161D4F800
:106580001001002806D103220021012001F05EF94C
:10659000C4F8100110BD00000000002010B5104824
:1065A00000F028F80E4CD4F85C0430B90322002126
:1065B000012001F04BF9C4F85C04D4F86004002811
:1065C0000DD103220021012001F040F90023C4F87D
:1065D0006004BDE810401A46194601F0B9B910BD73
:1065E0001401002010B5406A0021C185C184FEF766
:1065F000E2FE10BD70B504460C30E0640146206533
:1066000004F1440004F1580560650D60E06C4560DC
:1066100020680068C16841F01001C16060680068CE
:10662000016841F002010160A0680068016841F062
:106630000201016060680068016821F001010160E9
:106640006068FDF7B3FF606890F840100F20884045
:10665000114948602068616800680968001D886009
:1066600061684FF480700968486060680068C560C0
:1066700060680068016841F00101016020680068FD
:10668000416941F04001416120680068416941F081
:106690008001416170BD00000000024008B500218A
:1066A000009180F85814D0F8600400280DD0694695
:1066B00001F0FEF90098002807D004494FF08050FF
:1066C0000860BFF34F8FBFF36F8F08BD04ED00E08C
:1066D00070B5044690F8580415460E4608B10020DF
:1066E00070BDA0680068016821F001010160A06828
:1066F000FDF75CFF2068A16800680968001D8860DC
:10670000A0680068C660A06800684560A4F85A5494
:10671000012084F85804A0680068016841F0010174
:106720000160012070BD01680C3151E8002F22F496
:10673000907241E80023002BF5D10168143151E833
:10674000002F22F0010241E80023002BF5D1016B5C
:10675000012909D101680C3151E8002F22F0100203
:1067600041E80023002BF5D1202180F842100021C0
:1067700001637047F8B5044600684FF48075002641
:10678000006801684068009060680068016821F056
:10679000010101606068FDF709FF606890F8401032
:1067A0000F20884028494860606800684068C0F54C
:1067B00080700004000C37D0E16C002351F8082BE6
:1067C0001044626D471E8A4201D204F10C01D4F8D4
:1067D00050C08C4500D1012304F2574E00F1FF0256
:1067E00072450BD9DCF800E004F2571204F15800AE
:1067F000964503D8DCF80420824215D2A3B9E26C96
:106800005760E16408600096D4F85C0460B16946A2
:1068100001F04EF9009838B10C494FF080500860F3
:10682000BFF34F8FBFF36F8F60680068456061688A
:10683000E06C09680068C86060680068016841F041
:1068400001010160F8BD00000000024004ED00E01D
:1068500010B50446B0F80801B4F80A11884203D113
:10686000002084F80C0110BD60680068016821F008
:10687000010101606068FDF799FEB4F80811B4F8F1
:106880000A01814201D9081A01E0C0F1FF0080B27B
:10689000A4F80E012168626809681268091D9160F8
:1068A000B4F80A2104F10801114462681268D16049
:1068B000616809684860012084F80C01606800681C
:1068C000016841F00101016010BD000038B50446C7
:1068D00000200090B4F80A11B4F80E211144FF22F0
:1068E000B1FBF2F302FB1311A4F80A11B4F808216A
:1068F0008A4203D02046FFF7ABFF01E084F80C0189
:10690000D4F8100110B1694601F0D2F800980028BF
:1069100007D004494FF080500860BFF34F8FBFF39A
:106920006F8F38BD04ED00E07CB50446D0F85C0400
:106930000E46002805D0114601F018F9012801D0B3
:1069400000207CBD00250C3408E01EB1BDF8041009
:106950000098B047204600F01DF8012501AA6946BD
:10696000204600F004F80028EFD128467CBD10B581
:10697000D0E910439C4203D100200860108010BD74
:106980001B680B60406C81880088081A401C1080CE
:10699000012010BDD0E91021914205D0826C083150
:1069A0008A4200D201464164704708B590F842100F
:1069B000222901D0022008BD82684FF480539A42F8
:1069C00001D1016921B1816A9A421BD04AB10AE022
:1069D0000268816A5268C2F308020A80816A891CCF
:1069E00008E0026972B10268526802F07F020A7020
:1069F000816A491C8162C18D491E0904090CC18547
:106A000003D01BE002685268F1E70168CA6822F00F
:106A10002002CA600168CA6822F48072CA600168F4
:106A20004A6922F001024A61202180F842100021C7
:106A30004163026B012A03D0FEF7DAFE002008BD95
:106A4000016301680C3151E8002F22F0100241E887
:106A50000023002BF5D101680A68D20602D50A6826
:106A600049680091818DFEF7A5FCE7E770B5044603
:106A700000680169E26821F4405111430161216914
:106A8000A0680843616908432168CA6841F20C6341
:106A90009A430243CA6020684169A26921F44071A7
:106AA000114341611E492068884202D1FEF7A8FACD
:106AB00001E0FEF795FA00EBC00101EB00126068FF
:106AC00064218000B2FBF0F3B3FBF1F36FF0180622
:106AD0007343B2FBF0F5B2FBF0F605EB830532230E
:106AE00003EB0515B5FBF1F5B6FBF1F605F0F00586
:106AF00005EB0615B2FBF0F6B2FBF0F0B0FBF1F0DF
:106B00006FF01802504306EB800003EB0010B0FB5F
:106B1000F1F0216800F00F002844886070BD00008B
:106B2000003801400148FEF747BC0000CC060020B9
:106B3000064800680168C90605D5C068C00602D5C8
:106B40000348FFF717BE0148FEF736BC14070020C4
:106B500014010020FEE70907090E002804DB00F1FC
:106B6000E02080F80014704700F00F0000F1E020F2
:106B700080F8141D70470000FEF70CF91249114807
:106B80000860FFF77FFCFFF73FF8FFF717F8FFF704
:106B9000A5F8FFF79DF9FFF7B7F9FFF7E3F8FFF75F
:106BA00087F8FFF7D9FCFFF7F9FC0848FFF786FBE9
:106BB000FFF7E0F9FFF702FB0548FFF79DFC00F047
:106BC0005DFDFEE70040000808ED00E078050020CC
:106BD000200600202DE9F047204C0F460546A66808
:106BE000D4F83090D4F834802068001D00F016FBF3
:106BF00038B9206890F82C1001208840E168814362
:106C0000E160681C15D1A7B11549226848689060F9
:106C100023688268DA6022688368121D5A602268DD
:106C2000121D8260206841610868401C0860BDE850
:106C3000F08720683544B5424560216805D240465A
:106C4000BDE8F047091D00F00FBB4846091D00F0E4
:106C50000BFB606A8542EAD26562E8E758060020CD
:106C6000E80800202DE9F041054600F015FB344C02
:106C70006068401C60602068324F10B1206920B30A
:106C800029E025606068012825D1002606EB8600F2
:106C900007EB800000F0DAFA761C052EF6D32948BF
:106CA000643000F0D3FA2748783000F0CFFA254856
:106CB0008C3000F0CBFA2348A03000F0C7FA21480E
:106CC000643020631430606305E02068E96AC06ABC
:106CD000884200D82560206A0121401C2062E86AB1
:106CE000E26881401143E16000EB800007EB800027
:106CF0004068A8608168E9608268291D51608160F0
:106D0000E86A00EB800007EB8001696157F820100A
:106D1000491C47F8201000F0DFFA206900280CD049
:106D20002068E96AC06A884207D207494FF080505C
:106D30000860BFF34F8FBFF36F8FBDE8F081000095
:106D4000580600204808002004ED00E02DE9F0413D
:106D5000856B174604460026026C82B1C7B1E06815
:106D6000FDF7B1FAE168206C091AE16022689142EE
:106D700002D2A168081AE060022F16D017E020683E
:106D8000A8B9A06801F0BEF806460020A0600EE099
:106D90006068FDF798FA216C606808446060A1683B
:106DA000884204D32068606001E005B16D1E6D1C4F
:106DB000A5633046BDE8F0810E484FF420514207EC
:106DC00006D0C01D0B4920F00700411AC1F5205123
:106DD000094A00230144C2E900030839143A21F0AA
:106DE000070111604B600B600B1AC0E90013936040
:106DF00053607047FC080020A80600200648074A98
:106E00004FF080510368012BFCD91160BFF34F8F05
:106E1000BFF36F8FF6E700004808002004ED00E0A4
:106E20002DE9F0470D46DDE90984174682469100B9
:106E30009946089EA522206BFDF78AFA6FF00301A0
:106E4000206B01EB8701084420F00707780707D083
:106E5000502080F31188BFF34F8FBFF36F8FFEE791
:106E600065B100202218295C82F83410295C11B128
:106E7000401C1028F6D3002084F84300052E07D3C9
:106E8000502080F31188BFF34F8FBFF36F8FFEE761
:106E9000E662201D666400F0E4F904F1180000F0D9
:106EA000E0F92461C6F105006462A0614A465146DA
:106EB000384600F057F92060B8F1000F01D0C8F84B
:106EC0000040BDE8F087000030B51A4900E01146E7
:106ED0000A688242FBD3174B99420DD0164B994258
:106EE00002D3164B994207D9502080F31188BFF383
:106EF0004F8FBFF36F8FFEE74B685C18844203D15E
:106F0000406818444860084643681C18944209D1F8
:106F1000084C143C2468A24209D052681A444260CA
:106F20000A6812680260814200D0086030BD0460C7
:106F3000F9E70000A8060020FC080020FB30002034
:106F400010B5044600F0A8F9A06B28B15FF000046A
:106F500000F0C2F9204610BD0124F9E70548016B95
:106F6000096821B1016BC9680968416270474FF037
:106F7000FF31FAE75806002008484068401C4FF0EF
:106F8000500080F3118804D0BFF34F8FBFF36F8F91
:106F9000FEE7BFF34F8FBFF36F8FFEE7B006002011
:106FA0002DE9F041044600F077F994F9455004F1D9
:106FB000240609E0606A48B1304601F057F808B18C
:106FC00000F0DCFA6D1E6DB2002DF3DC4FF0FF36E1
:106FD00084F8456000F080F900F05EF994F94450BF
:106FE00004F1100709E0206948B1384601F03EF885
:106FF00008B100F0C3FA6D1E6DB2002DF3DC84F809
:107000004460BDE8F04100F067B900002DE9F041AF
:1070100004004FF000060FD014F1090F0BD808340C
:10702000600709D004F00700C0F10800C1438C429A
:1070300001D8044400E0002400F060FB414D2868C2
:1070400008B9FFF7B9FE002C6DDD6F68BC426AD845
:107050003C483D4A143001460968914202D33B4BFB
:10706000994215D9502080F31188BFF34F8FBFF399
:107070006F8FFEE708466146944501D3994207D9D0
:10708000502080F31188BFF34F8FBFF36F8FFEE75F
:10709000D1F804C0A44504D2D1F800C0BCF1000F5F
:1070A000E8D1D5F800C061453DD006680836964263
:1070B00001D39E4207D9502080F31188BFF34F8F30
:1070C000BFF36F8FFEE70A6802604A68A24207D2E8
:1070D000502080F31188BFF34F8FBFF36F8FFEE70F
:1070E000131B102B10D90A195FEA427C07D05020DD
:1070F00080F31188BFF34F8FBFF36F8FFEE75360AC
:107100004C600368136002604A68B81A6860AB6834
:10711000984200D2A86042F0004048600020086019
:10712000E868401CE86001F011F8700707D05020B3
:1071300080F31188BFF34F8FBFF36F8FFEE73046A8
:10714000BDE8F08194060020FC080020FB30002000
:1071500003480068002802D0816C491C8164704794
:107160005806002010B5031F4FF080741C601B1FD1
:1071700021F001011960191F024B0B6014394038CE
:107180000A6010BD796F00082DE9F04117460E46E0
:10719000002538B1502080F31188BFF34F8FBFF323
:1071A0006F8FFEE700F0AAFA00F076F8194C20681D
:1071B000C06C60B92068012180F850103FB10125F2
:1071C00000F08AF801213846FFF704FD01E000F0E5
:1071D00083F800F0BBFF45B138B90F494FF080503C
:1071E0000860BFF34F8FBFF36F8F00F055F8206832
:1071F000C56C002035B116B12168C86402E0226870
:10720000691ED164216881F8500000F065F82846B5
:10721000BDE8F0815806002004ED00E0D0E901321D
:1072200001699A60D0E901235A604A68824201D11B
:1072300082684A60002202610868401E0860704748
:1072400001484068704700005806002000F108011E
:107250004FF0FF32C0E90112C160016100210160FD
:10726000704700210161704730B50B685A1C02D08D
:1072700000F1080202E0026904E022465468256831
:107280009D42FAD953684B6099608A6051600861E9
:107290000168491C016030BD502080F31188BFF3A4
:1072A0004F8FBFF36F8F0A494868401C4860012820
:1072B0000CD10848006810F0FF0F07D0502080F371
:1072C0001188BFF34F8FBFF36F8FFEE77047000049
:1072D000B006002004ED00E00849486828B1401ECF
:1072E000486001D180F311887047502080F31188E5
:1072F000BFF34F8FBFF36F8FFEE70000B006002093
:1073000070B5002838D0A0F108041C48844202D38C
:107310001B48844207D9502080F31188BFF34F8F58
:10732000BFF36F8FFEE76068002807DB502080F313
:107330001188BFF34F8FBFF36F8FFEE7216839B11C
:10734000502080F31188BFF34F8FBFF36F8FFEE79C
:1073500020F00040606000F0D1F90A4D6068696873
:10736000084468602046FFF7AFFD2869401C28618B
:10737000BDE8704000F0EABE70BD0000FC080020CF
:10738000FB300020940600204FF0E0200021016136
:107390008161024941610721016170473F19010084
:1073A00010B5FCF759FF114910280ED300F1E02069
:1073B00090F8F0030A78904207D2502080F31188A9
:1073C000BFF34F8FBFF36F8FFEE7094800688968EE
:1073D00000F4E060884207D9502080F31188BFF3A1
:1073E0004F8FBFF36F8FFEE710BD0000B006002087
:1073F0000CED00E010B5020015D000F07FF90E484A
:10740000C06A012807D0502080F31188BFF34F8F46
:10741000BFF36F8FFEE700211046FFF7DBFB00F0A4
:1074200095FE002807D105494FF080500860BFF352
:107430004F8FBFF36F8F10BD5806002004ED00E0A2
:107440002DE9F0411546040008D079B1502080F3B1
:107450001188BFF34F8FBFF36F8FFEE7502080F38B
:107460001188BFF34F8FBFF36F8FFEE7FFF798FFD1
:107470005021EFF3118081F31188BFF34F8FBFF3D9
:107480006F8F94F85010022284F85020E26C521C46
:10749000E264012927D1A16A39B1502080F3118813
:1074A000BFF34F8FBFF36F8FFEE72E49CB6A0122E8
:1074B000EBB12D4E7368E3619F682762D3F808C073
:1074C00004F11807CCF804709F60A66233685B1C57
:1074D0003360E36A0968C96A8B4204D905B12A603E
:1074E000204918310A6080F31188BDE8F081D4E9A1
:1074F00002766369BE60D4E902677E605F68261D1C
:10750000B74201D1E7685F60002767611F687F1E8F
:107510001F60E76AD1F80CC002FA07F343EA0C03D4
:10752000CB6007EB8703104F8C3F07EB83035B684F
:10753000A360D3F808C0C4F80CC0D3F808C0CCF8D6
:1075400004609E60E36A03EB830307EB83036361DC
:10755000E36A03EB830357F82360761C47F8236044
:10756000B7E7000058060020D40800200249CA6985
:107570000260896841607047580600200149012077
:10758000086070477006002010B50C4650B10949DC
:1075900009681831FFF768FE2046BDE81040012158
:1075A000FFF718BB502080F31188BFF34F8FBFF354
:1075B0006F8FFEE75806002070B5040058D0A26C0B
:1075C000A2B1606C884200D30146E06A88424FD085
:1075D000012A4DD1274D2A6894420FD1502080F3C3
:1075E0001188BFF34F8FBFF36F8FFEE7502080F3FA
:1075F0001188BFF34F8FBFF36F8FFEE7E162A2697F
:10760000002A02DBC1F10501A1611B4E00EB8000E5
:10761000616906EB800081422AD1201DFFF7FEFD43
:10762000012130B994F82C00EA6801FA00F0824395
:10763000EA60E06AEA6881401143E96000EB80009B
:1076400006EB80004068A0608168E1608268211DCF
:1076500051608160E06A00EB800006EB80006061B1
:10766000E06A00EB800056F82010491C46F8201014
:1076700070BD0000580600204808002030B587B0D3
:10768000002002AA19A1095C115411B1401C102854
:10769000F8DB19490025CDE9005116482B46802218
:1076A00002A900F055FB144C383C98B1012802D0D7
:1076B000401C12D00EE0502080F31188BFF34F8F92
:1076C000BFF36F8F4FF0FF30606201202061A56033
:1076D00000F04CF8A06A07B030BD502080F311884C
:1076E000BFF34F8FBFF36F8FFEE7000049444C4557
:1076F00000000000FD6D0008900600200248C16AED
:10770000491CC16270470000580600201549CA6A2A
:1077100001F1180012B101210160704700220260DE
:10772000C868114AB0FA80F0C0F11F0000EB800079
:1077300052F8203073B102EB800000F10803426878
:10774000526842609A4201D1C2684260D0680860C3
:1077500008687047502080F31188BFF34F8FBFF344
:107760006F8FFEE758060020480800203EB52948E4
:107770000025019501788DF80810FF21017001782E
:107780008DF800109DF80010234C11F0500121706D
:107790000CD09DF800205021914316D0502080F34A
:1077A0001188BFF34F8FBFF36F8FFEE7502080F338
:1077B0001188BFF34F8FBFF36F8FFEE7491C019114
:1077C0009DF8001049008DF800109DF80010090682
:1077D0000199F3D408291AD0C1F10701A160217AD7
:1077E000090201F4E061A1609DF8081001700B48E6
:1077F000016841F47F010160016841F07F4101604F
:10780000FFF7C2FD6560FCF7F1FC00203EBDA560FE
:10781000E5E7000000E400E0B006002020ED00E015
:1078200010B5502080F31188BFF34F8FBFF36F8FD7
:1078300000F0CAFA18B104494FF0805008600020E7
:1078400080F3118810BD000004ED00E070B50E4615
:1078500005001DD04FF0FF30B0FBF5F0B04217D35C
:1078600005FB06F010F1490F12D84830FFF7CEFBA8
:10787000040009D004F1480120463EB10160C0E98E
:107880000F56012100F00CF8204670BD0060F6E7AD
:10789000502080F31188BFF34F8FBFF36F8FFEE747
:1078A0002DE9F0410F4604004FF001062DD0E06BAA
:1078B00098B3B51EB5FBF0F1206C81423ED3FFF7C3
:1078C000EBFCD4E90F20216802FB0011A16000212C
:1078D000A163216861600A46D4E90F01401E00FBE4
:1078E00001212046E16000F8445F457004F110007A
:1078F000A7B1FFF7ABFC04F12400FFF7A7FC00BF22
:10790000FFF7EAFC3046BDE8F081502080F3118893
:10791000BFF34F8FBFF36F8FFEE70FE021690029A0
:10792000EED000F0A3FB0028EAD008494FF08050C9
:107930000860BFF34F8FBFF36F8FE1E7502080F3F4
:107940001188BFF34F8FBFF36F8FFEE704ED00E0A8
:107950002DE9FF4782B01D468A464FF0000804001B
:1079600003D0BAF1000F08D011E0502080F3118845
:10797000BFF34F8FBFF36F8FFEE7206C38B15020FD
:1079800080F31188BFF34F8FBFF36F8FFEE7022D97
:107990000AD1E06B012807D0502080F31188BFF393
:1079A0004F8FBFF36F8FFEE700F000FA3F4F4FF0AD
:1079B00000094FF0805648B9049838B1502080F340
:1079C0001188BFF34F8FBFF36F8FFEE7FFF764FCA3
:1079D000A06BE16B884207D3022D05D00498D0B18B
:1079E000B8F1000F1AD01EE02A4651462046FFF794
:1079F000ADF9616A19B104F1240000F037FB20B140
:107A00003E60BFF34F8FBFF36F8FFFF765FC012020
:107A100006B0BDE8F087FFF75FFC22E06846FFF79D
:107A2000A5FD4FF00108FFF757FCFFF767FEFFF7D2
:107A300033FC94F94400401C01D184F8449094F93B
:107A40004500401C01D184F84590FFF745FC04A98E
:107A5000684600F03FF930B12046FFF7A1FA00F088
:107A600075FB0020D4E7FFF717FCA06BE16B8842A1
:107A700013D1FFF731FC04F110000499FFF784FDE6
:107A80002046FFF78DFA00F061FB00289ED13E6092
:107A9000BFF34F8FBFF36F8F98E7FFF71DFC2046B2
:107AA000FFF77EFA00F052FB90E7000004ED00E0E3
:107AB0002DE9F0410F46040009D0206C78B1502028
:107AC00080F31188BFF34F8FBFF36F8FFEE7502015
:107AD00080F31188BFF34F8FBFF36F8FFEE72068ED
:107AE00048B9A06838B1502080F31188BFF34F8F98
:107AF000BFF36F8FFEE7FFF753FC5020EFF31186C3
:107B000080F31188BFF34F8FBFF36F8FA06BE16BD2
:107B1000814226D994F94550401CA063681C0AD0C4
:107B2000FFF78EFB854204D27F2D12D06D1C84F8A6
:107B30004550012016E0606A0028FAD004F12400C4
:107B400000F094FA0028F4D0002FF2D00120386021
:107B5000EFE7502080F31188BFF34F8FBFF36F8F93
:107B6000FEE7002086F31188BDE8F0812DE9F3439C
:107B7000002683B00400354609D0206C78B150202F
:107B800080F31188BFF34F8FBFF36F8FFEE7502054
:107B900080F31188BFF34F8FBFF36F8FFEE700F0C4
:107BA00005F9DFF82C814FF000094FF0805748B9F4
:107BB000049838B1502080F31188BFF34F8FBFF382
:107BC0006F8FFEE7FFF768FBA06BC8B1401EA06394
:107BD000206810B9FFF7BCFAA060206950B104F129
:107BE000100000F043FA28B1C8F80070BFF34F8FBF
:107BF000BFF36F8FFFF770FB012005B0BDE8F08386
:107C0000049808B11EB106E0FFF766FB5EE0684627
:107C1000FFF7ACFC0126FFF75FFBFFF76FFDFFF7F7
:107C20003BFB94F94400401C01D184F8449094F942
:107C30004500401C01D184F84590FFF74DFB04A995
:107C4000684600F047F80028204612D0FFF7A8F950
:107C500000F07CFA2046FFF773F90028B2D075B324
:107C6000FFF71AFB606A58B3206B0068C0F105018A
:107C700028E0FFF765F9E0B1206838B9FFF70CFBA1
:107C8000A06800F09BF90546FFF726FB04F12400ED
:107C90000499FFF779FC2046FFF782F900F056FAC5
:107CA00000288FD1C8F80070BFF34F8FBFF36F8FDC
:107CB00088E72046FFF774F900F048FA82E705E00C
:107CC000FFE70021A068FFF777FC9DE7002094E71D
:107CD00004ED00E02DE9F0410C46050014D0DCB1C4
:107CE000FFF7DAFA194EB2686B682068D11A471CA0
:107CF0001AD02F68D6F81CC00026674516D09342CC
:107D000014D8012526601BE0502080F31188BFF3B2
:107D10004F8FBFF36F8FFEE7502080F31188BFF3C2
:107D20004F8FBFF36F8FFEE7002509E0884205D92A
:107D3000401A20602846FFF719FCF5E70125266068
:107D4000FFF7CAFA2846BDE8F08100005806002077
:107D50002DE9FF5F8346DDE90E878A461646994680
:107D60009000FFF753F905001DD05420FFF74EF99E
:107D7000040015D05421FCF715FB25630021CDE943
:107D80000241CDE900874B46324651465846FFF73F
:107D900047F82046FEF766FF012004B0BDE8F09FDB
:107DA0002846FFF7ADFA4FF0FF30F6E705480169C6
:107DB00019B1C06A18B10020704701207047022035
:107DC00070470000580600202DE9F0414B4C00267A
:107DD000E06A28B16069401C60613046BDE8F0810E
:107DE000A5686D1CA56013D1206B006838B15020C8
:107DF00080F31188BFF34F8FBFF36F8FFEE7206BC7
:107E0000616B21636063E069401CE061FFF7A6F8E5
:107E1000616A3B488D420FD34FF0000E216B096819
:107E200039B1216BC968C9684A68954214D2626247
:107E300002E04FF0FF3161622168C96A01EB810104
:107E400050F82100012800D901262C48183000687C
:107E50000028C2D00126C0E7D1E902724B69BA609E
:107E6000D1E902277A605F680A1D974201D1CF6885
:107E70005F60C1F814E01F687F1E1F60D1F828C042
:107E8000BCF1000F15D0D1E907379F60D1E9073762
:107E90007B60DCF8047001F118039F4202D10B6A89
:107EA000CCF80430C1F828E0DCF800305B1ECCF8D8
:107EB0000030CB6A0127D4F80CC09F4047EA0C077A
:107EC000E76003EB830300EB83035B688B609F68D1
:107ED000CF609F687A609A60CA6A02EB820200EB08
:107EE00082034B6150F822305B1C40F82230C96A93
:107EF0002268D26A914291D901268FE75806002064
:107F00004808002070B504004FF000014FD0294D03
:107F10002868844207D0502080F31188BFF34F8F28
:107F2000BFF36F8FFEE7A06C38B1401EA064636C96
:107F3000E26A9A423BD040B139E0502080F3118888
:107F4000BFF34F8FBFF36F8FFEE7201DFFF766F97A
:107F5000012130B994F82C00EA6801FA00F082435C
:107F6000EA60606CE062C0F10500A061E06AEA6866
:107F700081401143E960104900EB800001EB800073
:107F80004068A0608268E2608368221D5A60826057
:107F9000E06A00EB800001EB80006061E06A00EBCA
:107FA000800051F82020521C41F820200121084671
:107FB00070BD0000580600204808002070B504007D
:107FC0004FF0000047D0274DE16A2A68D26A9142FB
:107FD00042D2A069002804DB2868C06AC0F105000D
:107FE000A061214E01EB8101606906EB81018842AD
:107FF0002DD1201DFFF712F9012130B994F82C0082
:10800000EA6801FA00F08243EA602868C06AE06228
:10801000EA6881401143E96000EB800006EB8000D4
:108020004068A0608168E1608268211D51608160C4
:10803000E06A00EB800006EB80006061E06A00EB24
:10804000800056F82010491C46F8201002E02868ED
:10805000C06AE062012070BD616C2A68D26A9142F8
:10806000F8D370BD580600204808002070B5C068DD
:10807000C06860B3D0E90732816A9A60D0E907230B
:108080005A604A6800F118039A4201D1026A4A60B4
:10809000002585620A68521E0A602A49CA6A0124BC
:1080A000EAB1294D6A68C261966806629668736093
:1080B000936085622A68521C2A60C06A0968C96A8E
:1080C00088423CD91F49012018310C6070BD5020F6
:1080D00080F31188BFF34F8FBFF36F8FFEE7D0E9B6
:1080E00002624369B260D0E9022672605E68021DD6
:1080F000964201D1C6685E6045611D686D1E1D60B7
:10810000C56ACE6804FA05F33343CB6005EB8503FB
:108110000D4D8C3D05EB83035B6883609E68C660F4
:108120009E6872609A60C26A02EB820205EB82036B
:10813000436155F822305B1C45F82230BDE7002032
:1081400070BD000058060020D40800202DE9F0473B
:108150000024A046FFF7A0F84C4D0026E86A28B19D
:10816000E86A401EE862E86A40B18AE0502080F385
:108170001188BFF34F8FBFF36F8FFEE76868434FDF
:10818000434A4FF0000A4FF001091837E8BB78E086
:10819000D068C468D4E90731A06A9960D4E90713AC
:1081A0005960436804F118018B4201D1216A416092
:1081B000C4F828A001685346491E0160D4E902C0F2
:1081C0006169CCF80800D4E9020CCCF80400D1F8BD
:1081D00004C0201D844503D1D4F80CC0C1F804C0EC
:1081E00063610B685B1E0B60E16AD5F80CC009FA8D
:1081F00001F343EA0C03EB60254B01EB81018C3B5F
:1082000003EB81014968A16000E01AE0D1F808C0E1
:10821000C4F80CC0D1F808C0CCF804008860E06A4B
:1082200000EB800003EB8001616153F82010491CD2
:1082300043F82010E06A2968C96A884201D947F8E2
:10824000269010680028A3D10CB1FEF787FE6C6958
:108250004CB100BFFFF7B8FD08B147F82690641E87
:10826000F8D1C5F814A057F8260050B128684FF08F
:10827000010808494FF080500860BFF34F8FBFF3EB
:108280006F8FFFF729F84046BDE8F08758060020B9
:10829000D408002004ED00E0FFFF0000000004040B
:1082A000040000080000000801020203040506079C
:1082B00008090A0B0C0D0E0F101000000000000042
:1082C0000000010203040607080900000000010283
:1082D00003040000F482000800000020C006000033
:1082E000284100083C830008C0060020C03100007F
:1082F0008441000813CC0614205C0702FF20D11330
:1083000014071B20A0041AE40401FF01FF01FF0170
:10831000FF015D0498300140121C1C0240300453E0
:108320000D0C334001290482100349127A023304F0
:0C8330001AAA014113FC310200200000D9
:04000005080040EDC2
:00000001FF
