:020000040800F2
:10000000780E0020C9010008251C0008C918000846
:10001000B519000805040008592400080000000074
:10002000000000000000000000000000131F000896
:100030009704000800000000111F0008151F0008A9
:10004000E3010008E3010008E3010008E301000800
:10005000E3010008E3010008E3010008E3010008F0
:10006000E3010008E3010008E3010008E3010008E0
:10007000E3010008E301000809040008E3010008A7
:100080003504000861040008E3010008E3010008EA
:10009000E3010008E3010008E3010008E3010008B0
:1000A000E3010008E3010008E3010008E3010008A0
:1000B000E3010008E3010008E3010008E301000890
:1000C000E3010008E3010008E3010008E301000880
:1000D000E30100082924000835240008E301000892
:1000E000E3010008E3010008E301000800F002F862
:1000F00000F05AF80AA090E8000C82448344AAF168
:100100000107DA4501D100F04FF8AFF2090EBAE865
:100110000F0013F0010F18BFFB1A43F0010318473B
:10012000C0230000E02300000A444FF0000C10F848
:10013000013B13F0070408BF10F8014B1D1108BF65
:1001400010F8015B641E05D010F8016B641E01F805
:10015000016BF9D113F0080F1EBF10F8014BAD1C55
:100160000C1B09D16D1E58BF01F801CBFAD505E073
:1001700014F8016B01F8016B6D1EF9D59142D6D3CD
:10018000704700000023002400250026103A28BFF5
:1001900078C1FBD8520728BF30C148BF0B607047F9
:1001A0001FB51FBD10B510BD00F09DF81146FFF73B
:1001B000F7FF02F063F900F0BBF803B4FFF7F2FFBA
:1001C00003BC00F0C3F80000094880470948004715
:1001D000FEE7FEE7FEE7FEE7FEE7FEE7FEE7FEE7F7
:1001E000FEE7FEE704480549054A064B7047000054
:1001F000771F0008ED00000878080020780E002026
:10020000780A0020780A0020B2F120030AD5C2F152
:10021000200320FA02F001FA03F321FA02F140EA86
:100220000300704721FA03F04FF00001704710B54A
:10023000203AC0F00B80B1E81850203AA0E81850DE
:10024000B1E81850A0E81850BFF4F5AF5FEA027C9F
:1002500024BFB1E81850A0E8185044BF18C918C00E
:10026000BDE810405FEA827C24BF51F8043B40F8AF
:10027000043B08BF7047D20728BF31F8023B48BF94
:1002800011F8012B28BF20F8023B48BF00F8012BD2
:1002900070474FF0000200B5134694469646203949
:1002A00022BFA0E80C50A0E80C50B1F12001BFF42F
:1002B000F7AF090728BFA0E80C5048BF0CC05DF895
:1002C00004EB890028BF40F8042B08BF704748BFE3
:1002D00020F8022B11F0804F18BF00F8012B704757
:1002E000704770477047754600F02CF8AE46050021
:1002F0006946534620F00700854618B020B5FFF741
:1003000071FFBDE820404FF000064FF000074FF0AE
:1003100000084FF0000B21F00701AC46ACE8C00923
:10032000ACE8C009ACE8C009ACE8C0098D4670472C
:1003300010B50446AFF300802046BDE81040FFF73B
:100340003CBF0000004870471808002001491820F1
:10035000ABBEFEE726000200704700002DE9F04129
:10036000234F3E687D6872B600204FF0E02108619F
:10037000486188611F490868426922F0C0024261F1
:100380001D480268536923F0C0035361896B0968F3
:100390000A6822F001020A60C16B09680A6822F04B
:1003A00001020A60806B0068016821F001010160B0
:1003B00012484FF0FF3444600E4801F012F80E4826
:1003C00001F00FF800F09EFA0020810001F1E02119
:1003D000C1F88041C1F88042401C0828F5D3084884
:1003E000076086F30888AC46BDE8F041604700002E
:1003F000004000089C050020E405002000000240A9
:1004000008ED00E0FEE7000007480168890408D510
:10041000064991F840200F2191404160044801F0C5
:1004200012BF024800F096B9000002402C060020DE
:100430000000002007480168890208D5064991F8A4
:1004400040200F2191404160044801F063BE024802
:1004500000F080B90000024070060020100100206A
:1004600007480168890108D5064991F840200F2105
:1004700091404160044801F0F7BD024800F06AB9BC
:1004800000000240B406002010010020006801684E
:10049000C907FCD17047704772B6FEE706490020D5
:1004A000C8610648016941F004010161016941F038
:1004B0004001016170470000F80600200020024062
:1004C000064A0021D16106490A6942F002020A6126
:1004D0004861086940F0400008617047F806002054
:1004E00000200240044B0022DA61044A136943F001
:1004F0000103136101807047F806002000200240CC
:1005000014480022C168CB06134904D5CA6942F0D9
:100510000202CA611022C3685B0705D5CB6943F0AC
:100520000103CB6142F00402C369DB0707D0CB694A
:1005300043F00403CB61C16921F00101C161A2F55F
:100540008071013901D0C2607047C16921F0010199
:10055000C161704700200240F806002070B50546D2
:1005600000F00EFC0646114C09E0681C07D025B1CE
:1005700000F006FC801BA84201D9032070BDE06892
:10058000C007F2D1E068800601D52020E060E06875
:10059000C00605D4E069C00702D1E068400703D572
:1005A000FFF7AEFF012070BD002070BD00200240AB
:1005B00000B585B001F2FF31C1F387210022CDE9FA
:1005C00002010492009204A9684600F0ABF90028E9
:1005D00000D0012005B000BD2DE9F04115460E46C2
:1005E0000746002414E0305D611CA94204D2311991
:1005F000497840EA012201E040F47F4239190023A2
:10060000012000F0EDF910B10520BDE8F081A41C37
:10061000AC42E8D30020F8E710B590F82110002292
:10062000022905D00421816380F82020012010BD1B
:1006300001680B6823F00E030B6001680B6823F060
:1006400001030B6090F84030C46B012101FA03F301
:10065000636080F8211080F82020104610BD000053
:1006600010B590F821100024022903D004218163E1
:1006700001243DE001680A6822F00E020A60016868
:100680000A6822F001020A601A4A0168914201D107
:10069000012121E0174A1432914201D110211BE0BF
:1006A000144A2832914201D1891515E0114A3C3291
:1006B000914201D189140FE00E4A5032914202D189
:1006C0004FF4803108E00B4A6432914202D14FF47A
:1006D000801101E04FF08071064A083A5160012113
:1006E00080F82110002180F82010416B01B188476B
:1006F000204610BD0800024010B528B301680A6802
:1007000022F001020A600268002111600268516053
:10071000026891600268D1600C4B026801241A449F
:100720001423B2FBF3F29300094AC0E90F239C4063
:1007300054608162C16201634163816380F821106A
:1007400080F82010002010BD012010BDF8FFFDBF73
:10075000000002402DE9F05FC16B0C6801680B6876
:10076000D0F840C0042202FA0CF2494DDFF824A16F
:10077000494E4A4FDFF828B1DFF828E122422CD059
:100780005A072AD50A68920603D40A6822F004029E
:100790000A600168A94201D1042219E0514501D142
:1007A000402215E0B14202D14FF4806210E0B9421C
:1007B00002D14FF480420BE0594502D14FF4802220
:1007C00006E0714502D14FF4800201E04FF08062F3
:1007D0002F4908394A60C16A3BE04FF0020808FA25
:1007E0000CF818EA040F4FF000094FF0010235D061
:1007F0005FEA837832D50B689B0605D40B6823F03B
:100800000A030B6080F821200168A94201D102226D
:1008100019E0514501D1202215E0B14202D14FF437
:10082000007210E0B94202D14FF400520BE059457A
:1008300002D14FF4003206E0714502D14FF40012AC
:1008400001E04FF00072124908394A6080F82090A8
:10085000816A00291AD0BDE8F05F0847082505FA2B
:100860000CF5254212D01B0710D50B6823F00E03A0
:100870000B6090F84010C36B02FA01F1596082637B
:1008800080F8212080F82090016BE2E7BDE8F09F1E
:10089000080002401C0002403000024044000240B8
:1008A000580002406C00024030B528B308C8134914
:1008B00014221944B1FBF2F18900C163104981632C
:1008C000022141771A6843F6F0718A43D0E9001497
:1008D0002143D0E902452C43214304692143446963
:1008E000214384692143114319600021416301229E
:1008F00042770177084630BD012030BDF8FFFDBFCB
:1009000000000240064810B54FF0FF31016100229F
:100910000261C160C26000F073FA002010BD0000E7
:10092000001002402DE9F047054626480F460126F3
:10093000017E01290FD00121814601762868DFF868
:1009400088804CF25034022808D0A2462046FFF797
:1009500005FEA8B131E00220BDE8F0872046FFF790
:10096000FDFD08BB0120FFF799FD2046FFF7F6FDCE
:10097000D8F81010064621F00401C8F810101CE049
:100980004FF0FF303860AC6811E02046FFF798FD6B
:100990005046FFF7E3FDD8F81010060021F00201E1
:1009A000C8F8101001D03C6007E004F58064D5E978
:1009B000020100EB8120A042E7D8002189F818103D
:1009C0003046C9E7F80600200020024003480169CC
:1009D00041F08001016100207047000000200240CA
:1009E0002DE9F05F07461C4888460024017E154625
:1009F0001E46012909D00121814601764CF2503A68
:100A00005046FFF7ABFD18B122E00220BDE8F09F91
:100A1000012F02D0022F00D00427D346DFF83CA0DC
:100A2000220128463146FFF7EFFB81B208EB440074
:100A3000FFF758FD5846FFF791FDDAF8102022F035
:100A40000102CAF8102018B9641CE4B2BC42E7D312
:100A5000002289F81820D9E7F8060020002002407B
:100A6000064900200A69120607D5054A4A60054A68
:100A70004A600969090600D501207047002002403C
:100A800023016745AB89EFCD2DE9F04300233E4FAD
:100A90000F2573E001229A400A406DD023F0030431
:100AA000E619D6F808809C074FEA147C05FA0CF981
:100AB00009EA0804DFF8D480404502D14FF000086D
:100AC00016E0DFF8CC80404502D14FF001080FE07E
:100AD000DFF8C080404502D14FF0020808E0DFF89F
:100AE000B880404502D14FF0030801E04FF0040800
:100AF00008FA0CF8A04522D1284CD4F800C02CEA02
:100B0000020CC4F800C0241DD4F800C02CEA020C6A
:100B1000C4F800C0214C0C34D4F800C02CEA020CFC
:100B2000C4F800C0241FD4F800C02CEA020CC4F89A
:100B300000C0D6F808C02CEA090CC6F808C0FF2A85
:100B400001D8064601E000F104064FEA830401D90A
:100B5000A4F12004D6F800C005FA04F82CEA080C29
:100B60004FF0040808FA04F84CEA080CC6F800C074
:100B7000C46824EA0204C46003F1010331FA03F2F9
:100B800088D1BDE8F083000000000140000801406A
:100B9000000C01400010014000140140000401401D
:100BA0002DE9F84FDFF8B8910024A9F1040B234692
:100BB0000F2709F1040AABF1040EC9E00125A54095
:100BC0002A40AA427DD1674ED1F804C0ACEB06089A
:100BD000B44532D014DCBCF1030F3AD009DCBCF1CF
:100BE000000F2AD0BCF1010F1CD0BCF1020F31D193
:100BF0001DE0BCF1110F17D0BCF1120F2AD119E082
:100C0000B8F5881F19D006DCB8F5803F15D0B8F5C7
:100C1000801F1FD111E0B8F5001F0ED0B8F5041FDA
:100C200018D10AE0CB6815E0CB681B1D12E0CB6839
:100C300008330FE0CB680C330CE08B682BB1012B31
:100C40004FF0080303D0456104E0042302E005618E
:100C500000E00023FF2A01D8064601E000F1040667
:100C60004FEA840501D9A5F12005D6F8008007FADE
:100C700005FC28EA0C0803FA05F548EA0508C6F859
:100C800000804D68ED0062D5374DAE6946F0010633
:100C9000AE61AD6924F0030605F001050095334D02
:100CA00006EB050CDCF80850A607360F07FA06F825
:100CB00025EA0805DFF8B880404503D14FF0000869
:100CC00017E044E0DFF8AC80404502D14FF0010866
:100CD0000FE0DFF8A480404502D14FF0020808E0A1
:100CE000DFF89880404502D14FF0030801E04FF053
:100CF000040808FA06F848EA0508CCF808804D68A8
:100D0000D9F80060ED024D4601D5164300E0964348
:100D10002E604D68DAF80060AD02554601D51643E5
:100D200000E096432E604D68DBF80060AD035D4641
:100D300001D5164300E096432E604D68DEF8006052
:100D4000ED03754601D5164300E096432E60641C02
:100D50000D682A46E5407FF431AFBDE8F88F00000A
:100D60000804014000001110001002400000014082
:100D700000080140000C0140001001400014014037
:100D800001488068704700007005002002488168B3
:100D9000027811448160704770050020074810B543
:100DA000016841F010010160032000F087F80F2076
:100DB00000F006F800F026F8002010BD00200240E8
:100DC00070B50D4D04464FF47A712878B1FBF0F000
:100DD0000A490968B1FBF0F000F0EEFA48B9102CAE
:100DE00007D200222146501E00F048F800206C6017
:100DF00070BD012070BD0000700500207C05002042
:100E0000704700000C4808B5816941F0010181611B
:100E1000816901F001010091C16941F08051C16116
:100E2000C06900F0805000900448416821F0E06102
:100E300041F08061416008BD0010024000000140A7
:100E400000280DDB00F01F020121914040098000C5
:100E500000F1E020C0F88011BFF34F8FBFF36F8F18
:100E60007047002809DB00F01F0201219140400972
:100E7000800000F1E020C0F800117047F0B40E4B84
:100E80001B680C46C3F30223C3F10705042D00D9E8
:100E90000425191D072901D2002300E0DB1E0126CD
:100EA00006FA05F1491E214099409E40761E1640E3
:100EB0003143F0BC01F0D1BA0CED00E0064900F07E
:100EC000070208684FF6FF03184040EA0220034A71
:100ED00010430860704700000CED00E00000FA05C8
:100EE0002DE9F0470F46050061D0434E306800F011
:100EF0000700B84209D2306820F00700384330605C
:100F0000306800F00700B84251D128683B4C810797
:100F100012D5400703D5606840F4E060606028782F
:100F2000000703D5606840F4605060606068A9689D
:100F300020F0F000084360602878C00728D0686877
:100F4000012810D02168022810D0890700292EDA44
:100F5000616821F0030101436160FFF711FF8046E2
:100F600041F288390DE021688903EFE78901EDE757
:100F7000FFF706FFA0EB0801494502D90320BDE8B1
:100F8000F0876068696800F00C00B0EB810FEFD16A
:100F9000306800F00700B8420BD9306820F0070035
:100FA00038433060306800F00700B84201D00120BB
:100FB000E5E72878400705D56068E96820F4E06037
:100FC000084360602878000706D56068296920F426
:100FD000605040EAC100606000F038F86168084A7B
:100FE000C1F30311515CC840064908600648006817
:100FF000FFF7E6FE0020C2E700200240001002409A
:10100000C62400087C05002074050020044805491A
:1010100000684968044AC1F30221515CC840704726
:101020007C05002000100240D62400080448054931
:1010300000684968044AC1F3C221515CC840704746
:101040007C05002000100240D62400080E4A51689A
:101050000E4801F00C03042B11D0082B0FD10C48C3
:10106000C1F38343C903C05C0AD55168084AC1F380
:101070004041921E515C054A5043B0FBF1F070476D
:1010800004494843704700000010024000127A00F3
:10109000B624000800093D002DE9F84F040070D087
:1010A0002078C04DC00749D06868C0F3810001288E
:1010B00007D06868C0F38100022809D16868C003BE
:1010C00006D52868800339D560680028E7D035E068
:1010D0006068B0F5803F0BD010B1B0F5A02F11D0F3
:1010E000286820F480302860286820F4802002E0FE
:1010F000286840F480302860606890B1FFF740FEB7
:1011000006460AE0286840F480202860F0E700BF27
:10111000FFF736FE801B642873D828688003F7D554
:101120000CE0FFF72DFE064605E000BFFFF728FEA6
:10113000801B6428F0D828688003F7D420789A4E62
:1011400080074FF001094FF0000839D5686810F0AA
:101150000C0F07D06868C0F38100022809D16868C5
:10116000C00306D42868800714D52069012808D157
:1011700010E02069B0B1C6F80090FFF701FE074605
:1011800005E00AE1FFF7FCFDC01B0228C4D828686F
:101190008007F7D52868616920F0F80040EAC100AF
:1011A00028600DE0C6F80080FFF7EAFD074604E07E
:1011B000FFF7E6FDC01B022823D828688007F7D474
:1011C000207800072CD57948A169D9B1C0F80090E2
:1011D000FFF7D6FD074604E0FFF7D2FDC01B02284B
:1011E0000FD8686A8007F7D571484FF4FA51006844
:1011F000B0FBF1F0009000BF0098411E0091FAD2C0
:101200000EE080E0C0F80080FFF7BAFD074604E07A
:10121000FFF7B6FDC01B022875D8686A8007F7D4AF
:101220002078400760D5E8690027C00008D4E86945
:1012300040F08050E861E869012700F0805000909C
:101240005C480168C90513D40168834641F4807184
:101250000160FFF795FD824606E000BFFFF790FDB5
:10126000A0EB0A0064284ED8DBF80000C005F5D5D5
:10127000E06801280AD008B1052813D0286A20F0B8
:1012800001002862286A20F0040002E0286A40F089
:1012900001002862E06841F2883B98B1FFF770FDD9
:1012A00082460BE0286A40F004002862EEE700BFA7
:1012B000FFF766FDA0EB0A0159455AD8286A800756
:1012C000F6D50CE0FFF75CFD824605E0FFF758FD20
:1012D000A0EB0A0159454CD8286A8007F6D41FB103
:1012E000E86920F08050E861E06988B36968C1F37B
:1012F0008101022944D00228C6F8608004D0FFF79B
:101300003FFD044638E034E0FFF73AFD074604E0CD
:10131000FFF736FDC01B02282BD828688001F7D4C0
:10132000206AB0F5803F05D16868A16820F40030DC
:1013300008436860D4E908010843696821F474111E
:1013400008436860C6F86090FFF71AFD044606E09F
:1013500025E000BFFFF714FD001B022809D828680C
:101360008001F7D51BE000BFFFF70AFD001B022834
:1013700002D90320BDE8F88F28688001F4D40EE07C
:101380000128F7D06868226A00F48031914204D1C4
:10139000616A00F47010884201D00120EAE7002061
:1013A000E8E7000000100240000042428004424290
:1013B0007C0500200070004010B5401EB0F1807F19
:1013C00001D3012010BD4FF0E02460610F216017B0
:1013D00001F043F80020A06107202061002010BD2B
:1013E000704710B5040015D0242084F8410020680F
:1013F000C16821F40051C160204600F077F9002057
:10140000606484F8410084F8420044F8300F606062
:10141000207410BD012010BD70470000F8B50168B0
:1014200004460868CA684B6910F00F0F4FF00005BA
:1014300059D003F0010602F49077374365D0C10715
:1014400005D0D10503D5616C41F00101616441070C
:1014500005D5D90703D0616C41F0020161648107B1
:1014600005D5D90703D0616C41F00401616401071F
:1014700007D502F02001314303D0616C41F008012F
:101480006164616C00293AD0800604D5900602D5CB
:10149000204600F00CFF20684069616CC0F38010AA
:1014A000090700D460B3204600F00DFE20684069B3
:1014B000400621D52068143050E8001F21F040017B
:1014C00040E80012002AF5D1E06BA8B16D494163F4
:1014D000E06BFFF7C5F8002811D0E06B416B01B05D
:1014E000BDE8F040084783060FD593060DD520468A
:1014F000BDE8F84000F0DBBE2046FFF78DFFF8BDE9
:101500002046FFF789FF6564F8BD266B2023012E76
:101510007CD1C6067AD5D60678D50868486800908A
:1015200048694FF00206400640D5E16B0868406804
:101530000004000CE8D0A28D8242E5D9E0858869DC
:1015400020282DD020680C3050E8001F21F4807135
:1015500040E80012002AF5D12068143050E8001F3E
:1015600021F0010140E80012002AF5D12068143072
:1015700050E8001F21F0400140E80012002AF5D198
:1015800084F84230256320680C3050E8001F21F0B9
:10159000100140E80012002AF5D1E06BFFF73CF89B
:1015A0006663A08DE18D401A81B22AE0A08DE18DA5
:1015B000401A81B2E08D0028A6D00029A4D022686C
:1015C0000C3252E8000F20F4907042E80007002F20
:1015D000F5D12068143050E8002F22F0010240E8D5
:1015E0000027002FF5D184F84230256320680C30A5
:1015F00050E8002F22F0100240E80023002BF5D124
:1016000066632046FFF7ECFEF8BDFFE705062BD525
:10161000150629D594F841002128F5D1A068B0F528
:10162000805F01D12069B0B1206A411C216221682C
:1016300000784860E08C401E0004000CE084E3D198
:101640002068C16821F08001C1602068C16841F054
:101650004001C160D8E7206A0088C0F308004860F4
:10166000206A801C2062E5E74006CDD55006CBD528
:10167000CA68204622F04002CA6084F8413000F077
:1016800022F9C1E7B11F000870B5040004D094F836
:101690004100002510B106E0012070BD84F84050E3
:1016A000204600F059F8242084F841002068C168E1
:1016B00021F40051C160204600F05AFE2068016903
:1016C00021F4904101612068416921F02A014161C2
:1016D0002068C16841F40051C1606564202084F82D
:1016E000410084F842006563002070BD10B50446D7
:1016F000154B01681548164A99420DD1816921F4AC
:10170000804181614FF4C0611046FFF7BDF9A06BC5
:10171000FEF7F2FF252011E00E4B994212D1C1696C
:1017200021F40031C1610C211046FFF7ADF9E06BE7
:10173000FEF7E2FFA06BFEF7DFFF2620BDE81040BA
:10174000FFF77EBB10BD00000038014000100240D2
:1017500000080140004400402DE9F04186B000241B
:1017600000940194029403940646DFF840C1036894
:101770004F48022103224F4D80274FF01008634548
:1017800039D1836943F480438361836903F48043DF
:101790000493836943F0040383618069039200F03A
:1017A000040004900802CDE9000169462846FFF7CD
:1017B000F7F92815CDE90004694628460294FFF799
:1017C000EFF93E4D3C48C5E902472C616C61C5E923
:1017D00000088014C5E906402846FFF765F808B1FF
:1017E000FEF75AFEB56300220B2125206E62FFF73B
:1017F00045FB252055E0DFF8C8C0634553D1C369D8
:1018000043F40033C361C36903F400330493836971
:1018100043F0040383618069039200F004000490A4
:101820000420CDE9000169462846FFF7B9F90820F0
:10183000CDE90004694628460294FFF7B1F91F4D2F
:101840001D4844352830C5E90004C5E902472C612C
:101850004FF440506C61C5E906402846FFF724F874
:1018600008B1FEF719FEF5636E62144D1248883513
:101870003C30C5E902472C616C61C5E900084FF4B2
:101880000050C5E906402846FFF70EF808B1FEF7FC
:1018900003FEB5630022072126206E62FFF7EEFAF1
:1018A0002620FFF7DEFA06B0BDE8F08100380140DF
:1018B0000010024000080140440002402C060020B5
:1018C0000044004070477047FEE70000114808B52B
:1018D000416941F0010141614069002200F00100CD
:1018E00000900C210E20FFF7C9FA0E20FFF7B9FA7D
:1018F000002208211020FFF7C1FA1020FFF7B1FAEB
:10190000002208211120FFF7B9FABDE80840112094
:10191000FFF7A7BA00100240094808B5816941F0F5
:1019200020018161816901F020010091816941F00C
:1019300004018161806900F00400009008BD00008E
:10194000001002400C4810B50A4901604FF4E13123
:101950004160002181600C22C160C0E904128161F4
:10196000C161FFF791FE002803D0BDE81040FEF7EB
:1019700093BD10BD003801409C0500200C4810B5F7
:101980000A4901604FF4E1314160002181600C227D
:10199000C160C0E904128161C161FFF775FE0028D2
:1019A00003D0BDE81040FEF777BD10BD00440040F5
:1019B000E4050020FEE770B505464FF6FF700022F3
:1019C0004AF201040DE0AB5C58400023C6074FEA21
:1019D000500000D060405B1CDBB2082BF6D3521CD9
:1019E00092B28A42EFD370BD70B5044600780D46BE
:1019F000022825D12046042D22D3411931F8026C4A
:101A0000A91E89B2FFF7D7FF864219D16078412815
:101A100006D042280AD00121BDE8704000F012B87B
:101A200029462046BDE8704000F05AB800F008F999
:101A300018B1BDE87040FEF791BC60780821EBE773
:101A400070BD000010B50A4C022240F080002270E8
:101A50006070A17003212046FFF7ADFFE070000A1F
:101A600020712146BDE810400522024800F0C8B8A8
:101A700018070020100100200188827849BA090463
:101A8000C07841EA022108437047000010B5114CAC
:101A90000222227041226270A07009B1012000E090
:101AA0000020E0700C48217109210069020E62716A
:101AB000020CA271020AE27120720648FFF77BFF56
:101AC0006072000AA072BDE810400B220149034871
:101AD00000F096B8180700208005002010010020B3
:101AE00070B5052901D2022109E08278012A0BD0C4
:101AF000022A22D0032A3BD0042A5FD00121BDE86C
:101B000070404120FFF79EBF0446112901D00221F9
:101B100011E0E01CFFF7B0FF0646E01DFFF7ACFF49
:101B2000054604F10B00FFF7A7FF024629463046A1
:101B300000F04EF9014601201EE004460D460B2937
:101B40000DD3E01CFFF798FFB4F807104ABA32B182
:101B5000F02A04D802F10B0189B2A94201D0022176
:101B600004E004F1090100F08FF90146022003E0CE
:101B7000052905D002210320BDE87040FFF786BF8C
:101B800000F0C0F8044601460320FFF77FFF002C59
:101B900019D10D480D4900BF91F858240AB1401ED3
:101BA000FAD1BFF34F8F0A4801680A4A01F4E06195
:101BB00011430160BFF34F8F00BFFDE700F034F821
:101BC00001460420D8E770BD40420F0010010020FC
:101BD0000CED00E00400FA0570B514460D4606460B
:101BE00000F047FB002808D02188286800F006F89C
:101BF0003046BDE8704000F04FBB70BDFFF7F4BE4B
:101C000030B4074B90F8584414B15B1EFAD103E08E
:101C100013B130BC00F02CBA30BC0020704700007B
:101C2000A0860100FEE7000004484FF0A5310160E6
:101C3000062141600921416100F04EB98005002074
:101C40000C48016840684A1C10D0421C0ED0A1F11B
:101C50000051B1F5A04F09D8C10707D0054920F0C0
:101C6000010049420844B0F53C4F01D300207047C1
:101C7000012070470040000800B587B0684600F0BA
:101C80009BF80098B0F1A53F08D0FFF7D9FF0028D6
:101C900002D000BFFEF762FB07B000BD019801282B
:101CA000FAD00328F8D0052809D00628F4D0062059
:101CB000019001200590684600F00EF9ECE7FFF76F
:101CC000BFFF0028E8D04FF0FF30009000200190C7
:101CD0000590684600F000F9DCE7000010B5FEF75B
:101CE000BFFE4FF43C410648FEF762FC18B1FEF718
:101CF0006DFE042010BDFEF769FE002010BD00003F
:101D0000004000082DE9F041284C6068032802D00B
:101D10000120BDE8F081D4E903010625814207D006
:101D2000022065606061214800F0D6F80220F0E7EB
:101D3000042060601D4800F0CFF81D4B4FF0FF30CD
:101D400000221C4FE6680EE0995C48405FF00001FD
:101D50005FEAC07C4FEA500000D07840491CC9B20D
:101D60000829F5D3521CB242EED3A169C043814287
:101D700007D00720656060610C4800F0ADF80720CF
:101D8000C7E7FFF75DFF40B105206060002060619C
:101D9000064800F0A1F80020BBE7082065606061FC
:101DA000024800F099F80820B3E700008005002001
:101DB000004000082083B8ED10B5044A1C23002120
:101DC000545C4454491C9942FAD310BD00FC0008ED
:101DD00070B588B015460C00064602D0B4F53C4FED
:101DE00002D9022008B070BD6846FFF7E5FF4FF04A
:101DF000A53000900120CDE901060020CDE9034087
:101E0000CDE90505684600F067F80028EAD1FFF73C
:101E100065FF040007D0062001900594684600F095
:101E20005BF82046DEE703200190684600F054F896
:101E30000028D7D11C2269460248FEF7F8F9002095
:101E4000D0E700008005002070B515460E0004465E
:101E500009D045B1B4F53C4F03D2C4F53C40A8428B
:101E600003D2032070BD002070BDFEF7F9FD0548C8
:101E70002A4631462044FEF7AFFB0446FEF7A6FD96
:101E8000204670BD0040000870B5124C16466268CE
:101E9000032A01D0012070BD2269824201D00320B3
:101EA00070BDE36882199A4201D9022070BD3246A2
:101EB000FFF7CAFF050007D006206561606005488E
:101EC00000F00AF8284670BD2069304420610020E7
:101ED00070BD00008005002070B50C4D04461C2626
:101EE000FEF7BEFD31462846FEF762FB18B1FEF74D
:101EF0006DFD042070BD324621462846FEF76CFB7E
:101F00000446FEF763FD204670BD000000FC00089B
:101F100070477047FEF73ABF30B58FB0282168464A
:101F2000FEF7B7F914210AA8FEF7B3F90121080456
:101F3000CDE900100024029402250491CDE9075058
:101F40004FF4E01009906846FFF7A6F808B172B6A2
:101F5000FEE70F20CDE90A054FF48060CDE90C4083
:101F600002210AA80E94FEF7BBFF002801D072B62A
:101F7000FEE70FB030BD704709480021A0F80811F6
:101F8000A0F80A11416809680A6842F002020A6072
:101F900000680068416941F08001416170470000BC
:101FA00000000020014800F00BB8000010010020E4
:101FB00010B5406A0021C185C184FFF72DFA10BD1C
:101FC00070B504460C30E0640146206504F144001D
:101FD00004F1580560650D60E06C4560206800689C
:101FE000C16841F01001C16060680068016841F09B
:101FF00002010160A0680068016841F0020101600F
:1020000060680068016821F0010101606068FEF706
:102010003DFA606890F840100F20884011494860F0
:102020002068616800680968001D886061684FF475
:1020300080700968486060680068C5606068006812
:10204000016841F00101016020680068416941F0C8
:102050004001416120680068416941F080014161AF
:1020600070BD000000000240002180F85814704745
:1020700070B5044690F8580415460E4608B1002085
:1020800070BDA0680068016821F001010160A068CE
:10209000FEF7FCF92068A16800680968001D8860E7
:1020A000A0680068C660A06800684560A4F85A543B
:1020B000012084F85804A0680068016841F001011B
:1020C0000160012070BD01680C3151E8002F22F43D
:1020D000907241E80023002BF5D10168143151E8DA
:1020E000002F22F0010241E80023002BF5D1016B03
:1020F000012909D101680C3151E8002F22F01002AA
:1021000041E80023002BF5D1202180F84210002166
:1021100001637047F8B5044600684FF480750068A5
:1021200001684068009060680068016821F0010162
:1021300001606068FEF7AAF9606890F840100F200F
:10214000884021494860606800684068C0F5807038
:102150000004000C29D0E16C00260B4651F8082B36
:102160001044626D471E8A4201D204F10C01D4F87A
:1021700050C08C4500D1012604F2574E00F1FF02F9
:1021800072450BD9DCF800E004F2571204F1580054
:10219000964503D8DCF80420824206D22EB95F604F
:1021A000E1640860012084F85C04606800684560B0
:1021B0006168E06C09680068C86060680068016870
:1021C00041F001010160F8BD0000024010B5044675
:1021D000B0F80801B4F80A11884203D1002084F84D
:1021E0000C0110BD60680068016821F00101016008
:1021F0006068FEF74BF9B4F80811B4F80A0181429F
:1022000001D9081A01E0C0F1FF0080B2A4F80E0164
:102210002168626809681268091D9160B4F80A2192
:1022200004F10801114462681268D16061680968AC
:102230004860012084F80C0160680068016841F082
:102240000101016010BDB0F80A11B0F80E2111446F
:10225000FF22B1FBF2F302FB1311A0F80A11B0F850
:1022600008218A4201D0FFF7B1BF002180F80C118C
:10227000704710B5D0E910439C4203D1002008609C
:10228000108010BD1B680B60406C81880088081AA4
:10229000401C1080012010BDD0E91021914205D0D2
:1022A000826C08318A4200D201464164704708B509
:1022B00090F84210222901D0022008BD82684FF414
:1022C00080539A4201D1016921B1816A9A421BD09F
:1022D0004AB10AE00268816A5268C2F308020A80C1
:1022E000816A891C08E0026972B10268526802F0D2
:1022F0007F020A70816A491C8162C18D491E0904EE
:10230000090CC18503D01BE002685268F1E701683F
:10231000CA6822F02002CA600168CA6822F480728A
:10232000CA6001684A6922F001024A61202180F8EE
:10233000421000214163026B012A03D0FFF7C2FA69
:10234000002008BD016301680C3151E8002F22F024
:10235000100241E80023002BF5D101680A68D2067B
:1023600002D50A6849680091818DFFF739F8E7E7DF
:1023700070B5044600680169E26821F440511143D8
:1023800001612169A0680843616908432168CA683E
:1023900041F20C639A430243CA6020684169A26912
:1023A00021F44071114341611E492068884202D1E5
:1023B000FEF73CFE01E0FEF729FE00EBC00101EB59
:1023C0000012606864218000B2FBF0F3B3FBF1F30C
:1023D0006FF018067343B2FBF0F5B2FBF0F605EBB5
:1023E0008305322303EB0515B5FBF1F5B6FBF1F6DA
:1023F00005F0F00505EB0615B2FBF0F6B2FBF0F0C8
:10240000B0FBF1F06FF01802504306EB800003EBD5
:102410000010B0FBF1F0216800F00F002844886044
:1024200070BD0000003801400148FEF7F7BF000012
:102430009C050020064800680168C90605D5C068EB
:10244000C00602D50348FFF765BE0148FEF7E6BFA8
:10245000E405002010010020FEE70907090E00280E
:1024600004DB00F1E02080F80014704700F00F005A
:1024700000F1E02080F8141D704700001CB5FEF745
:102480008DFCFFF749FDFFF747FAFFF71FFAFFF74B
:1024900059FAFFF773FAFFF76FFDFFF783FDFFF7B8
:1024A000EBFB034C01AA69462046FFF795FBF9E7D1
:1024B0001C010020010202030405060708090A0B9B
:1024C0000C0D0E0F101000000000000000000102B3
:1024D00003040607080900000000010203040000CD
:1024E00000250008000000209C05000028010008CD
:1024F0002C2500089C050020DC0800008401000851
:10250000139C0514202C0602FF209113E4051420CF
:1025100070061B20B40401FF01FF01FF01FF0158F9
:0C2520003201821013127A1AFF01011818
:04000005080000ED02
:00000001FF
